:020000040800F2
:10000000700600203502000801030008F90200080C
:10001000FD020008F1020008E904000800000000E9
:1000200000000000000000000000000009030008BC
:10003000F502000800000000050300087104000834
:100040004F0200084F0200084F0200084F0200084C
:100050004F0200084F0200084F0200084F0200083C
:100060004F0200084F0200084F0200084F0200082C
:100070004F0200084F0200084F0200084F0200081C
:100080004F0200084F0200084F0200080000000065
:100090000000000000000000000000004F02000807
:1000A0004F0200084F0200084F0200084F020008EC
:1000B0004F0200084F0200084F0200084F020008DC
:1000C0004F0200084F0200084F0200084F020008CC
:1000D0004F0200084F0200084F0200080000000015
:1000E0004F0200084F0200084F0200080000000005
:1000F0000000000000000000000000004F020008A7
:10010000000000004F0200084F0200084F020008E4
:1001100000000000000000000000000000000000DF
:100120004F0200084F0200084F0200084F0200086B
:100130004F02000800000000000000000000000066
:100140000000000000000000000000004F02000856
:100150004F0200084F0200084F0200084F0200083B
:100160004F0200084F0200080000000000000000DD
:10017000000000000000000000000000000000007F
:10018000000000004F020008000000000000000016
:100190004F02000800F002F800F03CF80AA090E8D6
:1001A000000C82448344AAF10107DA4501D100F032
:1001B00031F8AFF2090EBAE80F0013F0010F18BFC3
:1001C000FB1A43F00103184790030000B00300003E
:1001D000103A24BF78C878C1FAD8520724BF30C873
:1001E00030C144BF04680C60704700000023002445
:1001F00000250026103A28BF78C1FBD8520728BF37
:1002000030C148BF0B6070471FB500F097F91FBDA4
:1002100010B510BD00F031F81146FFF7F5FF00F002
:1002200085F900F04FF803B4FFF7F2FF03BC00F0CC
:1002300057F800000948804709480047FEE7FEE7F5
:10024000FEE7FEE7FEE7FEE7FEE7FEE7FEE7FEE786
:1002500004480549054A064B70470000750400082C
:100260009501000870000020700600207002002038
:1002700070020020704770477047754600F02CF8F8
:10028000AE4605006946534620F00700854618B083
:1002900020B5FFF7DDFFBDE820404FF000064FF02E
:1002A00000074FF000084FF0000BAC46ACE8C00967
:1002B000ACE8C009ACE8C009ACE8C00921F007010E
:1002C0008D46704710B50446AFF300802046BDE868
:1002D0001040FFF7A8BF000000487047080000204A
:1002E00001491820ABBEFEE726000200704700005F
:1002F000FFE7FEE770470000FFE7FEE7FFE7FEE7E6
:1003000070470000704700007047000083B0002075
:100310000290019043F60001C4F20201086840F423
:1003200080300860FFE743F60000C4F20200006876
:1003300000F400300190029801300290FFE701992B
:100340000020009039B9FFE70298B0F5A04018BF2F
:1003500001200090FFE70098C0070028E3D1FFE7E5
:1003600043F60000C4F2020000688003002803D5B1
:10037000FFE70120019002E000200190FFE70198D3
:10038000012858D1FFE743F64001C4F20201086892
:1003900040F08050086047F20001C4F20001086894
:1003A00040F44040086043F60801C4F202010868C6
:1003B000086008680860086840F48050086043F6E8
:1003C0000401C4F2020145F21940C0F24170086014
:1003D00043F60001C4F20201086840F08070086032
:1003E000FFE743F60000C4F2020000688001002825
:1003F00001D4FFE7F5E743F60041C4F2020140F201
:100400000270086043F60801C4F20201086820F097
:1004100003000860086840F002000860FFE743F648
:100420000800C4F20200006800F00C00082801D0A7
:10043000FFE7F4E700E0FFE703B0704781B000900A
:100440000098042809D1FFE74EF21001CEF2000116
:10045000086840F00400086008E04EF21001CEF297
:100460000001086820F004000860FFE701B0704751
:100470007047000080B54EF68851CEF20001086842
:1004800040F47000086043F60002C4F202021068F3
:1004900040F00100106043F60801C4F202010020A0
:1004A000086011684FF6FF73CFF6F66319401160CC
:1004B00043F60403C4F2020343F21001C2F2004106
:1004C0001960116821F48021116043F60C01C4F217
:1004D00002010860FFF71AFF4EF60851CEF2000144
:1004E0004FF00060086080BDFFE7FEE780B56FF069
:1004F0000400FFF7A3FF40F20000C2F20000006812
:100500004DF68361C4F21B31A0FB0110410D40F296
:100510006A00C2F20000017000784FF47A7148431B
:1005200040F26801C2F20001088080BD80B582B04F
:1005300000200190FFF7DAFFFFE7FEE7F1EE100A77
:100540004FF6FF71C0F2C03120EA010040F0407068
:10055000E1EE100A70470000780500080000002056
:1005600008000000D00100088005000808000020F5
:1005700068060000EC01000800BD01050000000055
:040000050800019559
:00000001FF
